:020000040800F2
:10000000000002207D140008091400080B140008E9
:100010000D1400080F14000811140008000000005F
:1000200000000000000000000000000013140008A1
:100030001514000800000000171400081914000827
:10004000CD140008CD140008CD140008CD1400080C
:10005000CD140008CD140008CD14000825140008A4
:10006000CD140008CD140008CD140008CD140008EC
:10007000CD140008CD140008CD140008CD140008DC
:10008000CD140008CD140008CD14000800000000B5
:10009000000000000000000000000000CD14000877
:1000A000CD140008CD140008CD140008CD140008AC
:1000B000CD140008CD140008CD140008CD1400089C
:1000C000CD140008CD140008CD140008CD1400088C
:1000D000CD140008CD140008CD1400080000000065
:1000E000CD140008CD140008CD1400080000000055
:1000F000000000000000000000000000CD14000817
:1001000000000000CD140008CD140008CD14000834
:1001100000000000000000000000000000000000DF
:10012000CD140008CD140008CD140008CD1400082B
:10013000CD140008000000000000000000000000D6
:10014000000000000000000000000000CD140008C6
:10015000CD140008CD140008CD140008CD140008FB
:10016000CD140008CD1400080000000000000000BD
:10017000000000000000000000000000000000007F
:1001800000000000CD140008000000000000000086
:08019000CD140008CD14000895
:1001980010B5054C237833B9044B13B10448AFF3B9
:1001A80000800123237010BD0C0000200000000017
:1001B8001815000808B5034B1BB103490348AFF3F2
:1001C800008008BD0000000010000020181500087D
:1001D80053B94AB9002908BF00281CBF4FF0FF31A6
:1001E8004FF0FF3000F072B9ADF1080C6DE904CEA4
:1001F80000F006F8DDF804E0DDE9022304B07047FA
:100208002DE9F047089E04468846002B4BD18A42C8
:10021800154667D9B2FA82F24AB1C2F1200701FA4B
:1002280002F320FA07F7954047EA030894404FEA9B
:10023800154E230CB8FBFEF71FFA85FC0EFB17883A
:1002480043EA084307FB0CF1994209D9EB1807F177
:10025800FF3080F01B81994240F21881023F2B4405
:100268005B1AA4B2B3FBFEF00EFB103344EA03445E
:1002780000FB0CFCA44509D92C1900F1FF3380F0D0
:100288000781A44540F2048102382C4440EA074023
:10029800A4EB0C0400271EB1D4400023C6E9004398
:1002A8003946BDE8F0878B4209D9002E00F0EB8073
:1002B8000027C6E9000138463946BDE8F087B3FA99
:1002C80083F7002F47D18B4202D3824200F2FA8093
:1002D800841A61EB030301209846002EE0D0C6E99A
:1002E8000048DDE702B9FFDEB2FA82F2002A40F0E8
:1002F8008F80491B4FEA154E1FFA85F80127B1FB7D
:10030800FEFC230C0EFB1C1143EA014308FB0CF115
:10031800994207D9EB180CF1FF3002D2994200F24A
:10032800CD808446591AA3B2B1FBFEF00EFB10141F
:1003380043EA044408FB00F8A04507D92C1900F14A
:10034800FF3302D2A04500F2B6801846A4EB080499
:1003580040EA0C409FE7C7F1200CBB4022FA0CFE94
:100368004EEA030E01FA07F420FA0CF521FA0CF311
:100378004FEA1E482543B3FBF8F92C0C08FB193348
:100388001FFA8EFA44EA034309FB0AF49C4202FA74
:1003980007F200FA07F10BD91EEB030309F1FF304E
:1003A80080F087809C4240F28480A9F1020973445E
:1003B8001B1BADB2B3FBF8F008FB103345EA03444E
:1003C80000FB0AFAA24508D91EEB040400F1FF332A
:1003D8006BD2A24569D90238744440EA0940A0FBAF
:1003E8000289A4EB0A044C45C2464B4654D351D06B
:1003F800002E69D0B1EB0A0564EB030404FA0CFC87
:10040800FD40FC404CEA0505C6E90054002747E7D3
:10041800C2F1200320FA03F7954001FA02F021FA0D
:1004280003F34FEA154E3843010CB3FBFEF71FFAEE
:1004380085F80EFB173341EA034107FB08F38B42AB
:1004480004FA02F407D9691807F1FF3C2FD28B424E
:100458002DD9023F2944CB1A81B2B3FBFEF00EFB23
:10046800103341EA034100FB08F38B4207D96918AE
:1004780000F1FF3C17D28B4215D902382944C91A1A
:1004880040EA07473BE73746304609E70746E7E6CD
:100498001846FBE64145ABD2B8EB020A69EB0E02FF
:1004A80001381346A4E76046E9E7184695E767462A
:1004B800D1E781467CE702382C4447E7ACF1020CCF
:1004C8002B442FE7384608E73746E9E6704700BF70
:1004D80010B504460E4B18784FF47A73B3FBF0F35B
:1004E8000C4A1068B0FBF3F000F0D0F868B90F2C94
:1004F80001D901200AE0002221464FF0FF3000F028
:1005080069F8034B5C60002000E0012010BD00BFCB
:10051800000000200800002008B50B4B1A6842F4C0
:1005280000721A601A6842F480621A601A6842F40B
:1005380080721A60032000F02FF80020FFF7C8FF30
:1005480000F014FF002008BD003C0240034A116877
:10055800034B1B780B441360704700BF300000202A
:1005680000000020014B1868704700BF30000020D1
:1005780038B50446FFF7F6FF0546B4F1FF3F02D051
:10058800044B1B781C44FFF7EDFF401BA042FAD335
:1005980038BD00BF0000002010B50446C31E042B60
:1005A8000FD80A4AD36823F4E0631B041B0C240207
:1005B80004F4E064234343F0BF6343F40033D3609F
:1005C80010BDA221024800F0CFFEEAE700ED00E0EE
:1005D8004815000870B505460C4616460F2A25D85A
:1005E8000F2C28D81B4BDB68C3F30223C3F1070287
:1005F800042A28BF0422191D062921D9033B4FF0DC
:10060800FF3101FA02F224EA02049C4001FA03F3E2
:1006180026EA03063443002D14DB2401E4B205F175
:10062800604505F5614585F8004370BDBA210A4863
:1006380000F09AFED4E7BB21074800F095FED1E709
:100648000023DCE705F00F052401E4B2034B5C55F9
:10065800EBE700BF00ED00E04815000814ED00E0EE
:1006680010B5041E08DB04F01F026409012393403F
:10067800044A42F8243010BDCE21034800F074FE2D
:10068800F1E700BF00E100E0481500080138B0F1CB
:10069800807F0AD2064B5860064AF02182F8231060
:1006A8000020986007221A6070470120704700BF39
:1006B80010E000E000ED00E010B50446042800D08A
:1006C80038B9042C0BD0094A136823F004031360CB
:1006D80010BD40F2D911064800F046FEF1E7034A82
:1006E800136843F004031360F2E700BF10E000E072
:1006F80048150008704708B5FFF7FCFF08BD000063
:100708002DE9F04782B080460E46A44B984217D098
:1007180003F58063984213D003F5806398420FD0A5
:1007280003F5806398420BD003F58063984207D0A5
:1007380003F54063984203D0C321994800F014FEA2
:1007480033689AB212B11B0C1B041BB1C421944824
:1007580000F00AFE7368012B1ED9112B1CD0022B46
:100768001AD0122B18D08F4A934215D002F5801256
:10077800934211D002F5801293420DD0A2F5F812DF
:10078800934209D002F58012934205D002F58012F7
:10079800934201D0032B04D1B368022B06D800245E
:1007A80045E0C5217E4800F0DFFDF5E7C6217C481D
:1007B80000F0DAFDF3E7EA21794800F0D5FD90E092
:1007C800042300E000238B4003430232764941F8BA
:1007D8002230764B1A68FB4303EA0201706810F472
:1007E800803F01D047EA0201704A1160526803EA6B
:1007F8000201706810F4003F01D047EA02016B4A19
:100808005160926803EA0201706810F4801F01D0F9
:1008180047EA0201654A9160D2681340716811F491
:10082800001F01D047EA0203604AD36001340F2C4D
:1008380000F2B0800125A54037682F40BD42F5D1B0
:100848007368022B01D0122B2BD13369CBB1092B42
:1008580017D0012B15D0022B13D0042B11D0052B48
:100868000FD0062B0DD0072B0BD0082B09D00A2B45
:1008780007D00C2B05D00F2B03D0D721484800F008
:1008880073FDE208083258F8220004F007039900C3
:100898000F238B4020EA030033698B40034348F859
:1008A8002230D8F800204FEA440A4FF0030909FA29
:1008B8000AF96FEA090909EA0202736803F00303F7
:1008C80003FA0AF31343C8F8003073685A1E012A62
:1008D80003D9112B01D0122B18D1F368032B3FF643
:1008E8006AAFD8F8082009EA0202F36803FA0AF3A3
:1008F8001343C8F80830D8F8042022EA05027368C0
:10090800C3F30015A5401543C8F80450D8F80C30B7
:1009180009EA0309B36803FA0AF343EA0903C8F8C2
:100928000C30736813F0805F80D000230193204B54
:100938005A6C42F480425A645B6C03F4804301931E
:10094800019BA208911C184B53F8210004F00303E3
:1009580099000F238B4020EA0300104B98453FF481
:1009680031AF03F5806398450ED003F58063984551
:100978000CD003F5806398450AD003F58063984549
:100988003FF41EAF07231EE701231CE702231AE7E3
:10099800032318E702B0BDE8F08700BF000002405B
:1009A800841500080000111000380140003C014087
:1009B8000038024070B5064615460C4629B1012D8F
:1009C80009D875B92404B46170BD40F2AF11064866
:1009D80000F0CAFCF3E74FF4D871034800F0C4FCF8
:1009E800EFE7B461F0E700BF8415000808B5054BD0
:1009F8005B69034200D108BD024B586100F020FC3E
:100A0800F9E700BF003C0140002800F03B8270B5C8
:100A180082B0044603680F2B39D8236813F0010FFE
:100A28004DD063682BB1B3F5803F02D0B3F5A02F4A
:100A380032D1A54B9B6803F00C03042B36D0A24B94
:100A48009B6803F00C03082B2BD06368B3F5803F39
:100A58005FD0B3F5A02F62D09B4B1A6822F4803286
:100A68001A601A6822F480221A606368002B60D02A
:100A7800FFF778FD0546944B1B6813F4003F1ED121
:100A8800FFF770FD401B6428F5D90320FFE1F8212A
:100A98008E4800F069FCC0E7FD218C4800F064FC3A
:100AA800C7E7894B5B6813F4800FCED0864B1B6871
:100AB80013F4003F03D06368002B00F0E58123683E
:100AC80013F0020F67D0E368012B41D823691F2B6D
:100AD80044D87D4B9B6813F00C0F4AD07A4B9B6827
:100AE80003F00C03082B3FD0E368002B77D0784B3A
:100AF80001221A60FFF736FD0546734B1B6813F099
:100B0800020F63D1FFF72EFD401B0228F5D9032001
:100B1800BDE16D4A136843F480331360A5E76A4B5F
:100B28001A6842F480221A601A6842F480321A6005
:100B38009BE7FFF717FD0546634B1B6813F4003F5F
:100B4800BDD0FFF70FFD401B6428F5D903209EE1B7
:100B580040F22F115D4800F007FCB7E74FF4987199
:100B68005A4800F001FCB4E7574B5B6813F4800F58
:100B7800BAD1554B1B6813F0020F04D0E368012B60
:100B880001D0012083E1504A136823F0F80321695A
:100B980043EAC1031360236813F0080F49D063695F
:100BA800012B2ED8636993B34A4B01221A60FFF7D1
:100BB800D9FC0546444B5B6F13F0020F39D1FFF7A0
:100BC800D1FC401B0228F5D9032060E13E4A136896
:100BD80023F0F803216943EAC1031360DBE73C4BC8
:100BE80000221A60FFF7BEFC0546374B1B6813F05E
:100BF800020FD0D0FFF7B6FC401B0228F5D903201E
:100C080045E14FF4B871314800F0AEFBCAE7314B0B
:100C180000221A60FFF7A6FC05462B4B5B6F13F00A
:100C2800020F06D0FFF79EFC401B0228F5D90320CF
:100C38002DE1236813F0040F00F08780A368012BCF
:100C480001D9052B38D1204B1B6C13F0805F39D1AB
:100C5800002301931C4B1A6C42F080521A641B6CDF
:100C680003F080530193019B01251B4B1B6813F470
:100C7800807F33D0A368012B44D0052B48D0124B7A
:100C88001A6F22F001021A671A6F22F004021A671B
:100C9800A368002B46D0FFF765FC06460A4B1B6F7E
:100CA80013F0020F4FD1FFF75DFC801B41F2883330
:100CB8009842F3D90320EAE04FF4CE71034800F0DC
:100CC80053FBC0E70025D0E700380240C0150008F4
:100CD80000004742800E4742007000406E4A136889
:100CE80043F480731360FFF73DFC06466A4B1B68AC
:100CF80013F4807FBED1FFF735FC801B0228F5D99D
:100D08000320C4E0654A136F43F001031367BFE78C
:100D1800624B1A6F42F004021A671A6F42F001021E
:100D28001A67B5E7FFF71EFC06465C4B1B6F13F00E
:100D3800020F08D0FFF716FC801B41F28833984257
:100D4800F3D90320A3E0002D3AD1A369022B3DD8A3
:100D5800A369002B00F09A80504A926802F00C02B6
:100D6800082A00F09680022B78D1E36913B1B3F515
:100D7800800F31D1236A3F2B34D8636AC03BF02BF4
:100D880036D8A36A022B05D0042B03D0062B01D03A
:100D9800082B33D1E36A023B0D2B35D8404B002298
:100DA8001A60FFF7DFFB05463C4B1B6813F0007F1A
:100DB80030D0FFF7D7FB401B0228F5D9032066E0A7
:100DC800364A136C23F080531364BEE740F2DF11F8
:100DD800344800F0C9FABBE74FF4F471314800F029
:100DE800C3FAC7E740F2E9112E4800F0BDFAC4E79C
:100DF8004FF4F5712B4800F0B7FAC2E740F2EB1157
:100E0800284800F0B1FAC5E74FF4F671254800F01C
:100E1800ABFAC3E7E369226A1343626A43EA8213BF
:100E2800A26A5208013A43EA0243E26A43EA0263C9
:100E38001A4A53601A4B01221A60FFF793FB0446C3
:100E4800164B1B6813F0007F06D1FFF78BFB001BC6
:100E58000228F5D903201AE0002018E0104B0022E0
:100E68001A60FFF77FFB04460C4B1B6813F0007FEA
:100E780006D0FFF777FB001B0228F5D9032006E010
:100E8800002004E001207047012000E0002002B0AB
:100E980070BD0120FBE700BF007000400038024031
:100EA80060004742C0150008324B9B6803F00C03F2
:100EB800042B5CD0082B01D02F4870472DE9F04B4C
:100EC8002C4B5A6802F03F025B6813F4800F2BD05A
:100ED800284B5B68C3F388131E4600275C01002576
:100EE800E41A65EB0705A90141EA9461A001001B1A
:100EF80061EB0501CB0043EA5073C400A01943EB32
:100F080007014B0243EAD053440220461946002306
:100F1800FFF75EF9174B5B68C3F3014301335B00CE
:100F2800B0FBF3F0BDE8F08B124B5B68C3F388139A
:100F38001E4600275C010025E41A65EB0705A90198
:100F480041EA9461A001001B61EB0501CB0043EA73
:100F58005073C400A01943EB07018B0243EA905376
:100F68008402204619460023FFF732F9D2E70348E6
:100F7800704700BF003802400024F40000127A00D5
:100F8800002800F0F98070B504460D460368013B5F
:100F98000E2B11D8072D15D8794B1B6803F00F03BA
:100FA800AB4215D2EBB2764A1370136803F00F0305
:100FB800AB420DD0012070BD4FF41471714800F0A0
:100FC800D3F9E7E740F251216E4800F0CDF9E3E7A5
:100FD800236813F0020F29D013F0040F04D06A4AD3
:100FE800936843F4E0539360236813F0080F04D028
:100FF800654A936843F460439360A3687BB1802B90
:101008000DD0902B0BD0A02B09D0B02B07D0C02B24
:1010180005D0D02B03D0E02B01D0F02B33D15A4A86
:10102800936823F0F003A1680B439360236813F0DF
:10103800010F42D06368032B2BD86368012B2ED095
:101048009A1E012A32D9504A126812F0020F00F093
:1010580095804D498A6822F0030213438B60FFF79D
:1010680081FA0646484B9B6803F00C036268B3EBB1
:10107800820F22D0FFF776FA801B41F2883398421C
:10108800F0D9032097E74FF41D713E4800F06CF942
:10109800C5E740F27B213B4800F066F9CDE73A4AC4
:1010A800126812F4003FD4D1012084E7364A12684E
:1010B80012F0007FCDD101207DE7314B1B6803F092
:1010C8000F03AB4209D9EAB22D4B1A701B6803F023
:1010D8000F03AB4201D001206DE7236813F0040F22
:1010E80014D0E3685BB1B3F5805F08D0B3F5A05FB7
:1010F80005D0B3F5C05F02D0B3F5E05F30D1224A26
:10110800936823F4E053E1680B439360236813F07A
:10111800080F15D023695BB1B3F5805F08D0B3F52C
:10112800A05F05D0B3F5C05F02D0B3F5E05F1DD175
:10113800154A936823F46043216943EAC103936025
:10114800FFF7B2FE104B9B68C3F303130F4AD35C3F
:10115800D8400F4B18600020FFF7BAF900202AE7A3
:1011680040F2B921074800F0FFF8C8E74FF43071A2
:10117800044800F0F9F8DBE70120704701201AE77E
:10118800003C0240C0150008003802403015000835
:1011980008000020014B1868704700BF08000020B5
:1011A80030B589B000240094214B1A6B42F08002BC
:1011B8001A631A6B02F080020092009A01941A6B6B
:1011C80042F001021A631A6B02F001020192019ABD
:1011D80002941A6B42F010021A631B6B03F010039F
:1011E8000293029B134D22464FF4FC512846FFF709
:1011F800E1FB02230393104B0493059403A90F48C2
:10120800FFF77EFA4FF4FC530393012304930594EC
:10121800069403A92846FFF773FA224621460720B9
:10122800FFF7D8F90720FFF71BFA09B030BD00BF58
:101238000038024000100240000011100000024077
:1012480008B5FFF78FF9074B1B68C01A312800D87B
:1012580008BDFFF787F9034B18605A6801325A60D6
:10126800F6E700BF28000020FEE7000000B595B0B3
:10127800002101912A4B1A6C42F080521A641B6CAF
:1012880003F080530193019B0291264B1A6842F4A4
:1012980040421A601B6803F440430293029B0123F7
:1012A80008934FF48033099302230E934FF480037D
:1012B8000F9304231093C0221192129308231393BF
:1012C80008A8FFF7A1FB10BB0F2303930223049385
:1012D800002305934FF4A05206920793032103A815
:1012E800FFF74EFEB8B9FFF755FF0F4BA3FB0030D1
:1012F8008009FFF7CBF90420FFF7DEF90022114639
:101308004FF0FF30FFF766F915B05DF804FB99213F
:101318000648FFF7A9FFA7210448FFF7A5FF00BF6C
:101328000038024000700040D34D6210F8150008E4
:1013380008B5FFF7F1F8FFF799FFFFF731FF084A03
:10134800536923F4FC535361064B5B685169DB0115
:1013580003F4FC530B4353610A20FFF709F9EEE746
:1013680000100240280000207047000010B582B02D
:1013780000240094214B5A6C42F480425A645A6CFF
:1013880002F480420092009A01941A6C42F0805252
:101398001A641B6C03F080530193019B0720FFF72D
:1013A800FBF8224621466FF00B00FFF713F922469F
:1013B80021466FF00A00FFF70DF9224621466FF02B
:1013C8000900FFF707F9224621466FF00400FFF7EE
:1013D80001F9224621466FF00300FFF7FBF8224689
:1013E80021466FF00100FFF7F5F8224621464FF03D
:1013F800FF30FFF7EFF802B010BD00BF0038024021
:101408007047FEE7FEE7FEE7FEE770477047704764
:1014180008B5FFF79BF8FFF76EF908BD08B502207D
:10142800FFF7E4FA08BD00000F49D1F8883043F40B
:101438007003C1F888300D4B1A6842F001021A6037
:10144800002098601A6822F0847222F480321A60B0
:10145800074A5A601A6822F480221A60D8604FF04E
:1014680000638B60704700BF00ED00E00038024069
:1014780010300024DFF834D0002103E00C4B5B5817
:10148800435004310B480C4B42189A42F6D30B4A8E
:1014980002E0002342F8043B094B9A42F9D3FFF7D4
:1014A800C3FF00F011F8FFF743FF70470000022068
:1014B80018160008000000200C0000200C00002076
:1014C80034000020FEE7000070B50D4E0D4CA41B43
:1014D800A4100025A54209D10B4E0C4C00F018F8B9
:1014E800A41BA4100025A54205D170BD56F82530CF
:1014F80098470135EEE756F8253098470135F2E769
:101508001016000810160008101600081416000817
:10151800F8B500BFF8BC08BC9E467047F8B500BFD8
:08152800F8BC08BC9E467047A8
:101530000000000000000000010203040607080983
:1015400000000000010203042E2E2F44726976650C
:1015500072732F53544D3332463478785F48414C80
:101560005F4472697665722F5372632F73746D33A3
:1015700032663478785F68616C5F636F7274657827
:101580002E6300002E2E2F447269766572732F53DE
:10159000544D3332463478785F48414C5F44726929
:1015A0007665722F5372632F73746D33326634789D
:1015B000785F68616C5F6770696F2E630000000080
:1015C0002E2E2F447269766572732F53544D333229
:1015D000463478785F48414C5F4472697665722F73
:1015E0005372632F73746D3332663478785F686139
:1015F0006C5F7263632E63002E2E2F5372632F6D08
:0816000061696E2E6300000019
:0816080000ECFF7F010000006F
:04161000BD01000810
:041614009901000830
:0C16180001000000100000000024F4009D
:040000050800147D5E
:00000001FF
